:100200000C9414070C943C070C943C070C943C078A
:100210000C943C070C943C070C943C070C943C0752
:100220000C943C070C943C070C943C070C943C0742
:100230000C943C070C943C070C94F5330C949834C4
:100240000C943C070C94C7330C94A1330C943C07DA
:100250000C943C070C943C070C943C070C943C0712
:100260000C943C070C9479330C943C070C943C0799
:100270000C943C070C943C070C943C070C943C07F2
:100280000C943C070C943C070C943C070C943C07E2
:100290000C943C070C943C070C943C070C943C07D2
:1002A00005A84CCDB2D44EB93836A9020C50B9913C
:1002B0008688083CA6AAAA2ABE000000803F080043
:1002C0000000BE922449123EABAAAA2ABECDCCCCD5
:1002D0004C3E00000080BEABAAAAAA3E000000006F
:1002E000BF000000803F0000000000084178D3BB41
:1002F0004387D1133D190E3CC3BD4282AD2B3E68EE
:10030000EC8276BED98FE1A93E4C80EFFFBE01C4DE
:10031000FF7F3F000000000007634236B79BD8A76D
:100320001A39685618AEBAAB558C1D3CB7CC57631A
:10033000BD6DEDFD753EF6177231BF000000803FC8
:1003400000407A10F35A00A0724E18090010A5D48C
:10035000E80000E87648170000E40B54020000CAE9
:100360009A3B000000E1F50500008096980000002F
:1003700040420F000000A08601000000102700008E
:100380000000E803000000006400000000000A0014
:10039000000000000100000000002C76D888DC6717
:1003A0004F0823DFC1DFAE59E1B1B796E5E3E4536F
:1003B000C63AE651997696E8E6C28426EB898C9B8C
:1003C00062ED407C6FFCEFBC9C9F40F2BAA56FA52C
:1003D000F490055A2AF75C936B6CF9676DC11BFCAE
:1003E000E0E40D47FEF520E6B500D0ED902E0300C9
:1003F000943577050080841E080000204E0A000016
:1004000000C80C333333330F986E12831141EF8DD4
:100410002114893BE65516CFFEE6DB18D1844B3814
:100420001BF77C1D901DA4BBE424203284725E2245
:100430008100C9F124ECA1E53D2700000000003E49
:100440005B4F5B3E3E6B4F6B3E1C3E7C3E1C183C44
:100450007E3C181C577D571C1C5E7F5E1C00183CA0
:100460001800FFE7C3E7FF0018241800FFE7DBE7E9
:10047000FF30483A060E2629792926407F050507D0
:10048000407F05253F5A3CE73C5A7F3E1C1C08082C
:100490001C1C3E7F14227F22145F5F005F5F0609F1
:1004A0007F017F006689956A606060606094A2FF4A
:1004B000A29408047E040810207E201008082A1C3C
:1004C00008081C2A08081E101010100C1E0C1E0C08
:1004D00030383E3830060E3E0E06000000000000A8
:1004E000005F00000007000700147F147F14242A17
:1004F0007F2A1223130864623649562050000807E9
:100500000300001C2241000041221C002A1C7F1C09
:100510002A08083E0808008070300008080808080B
:10052000000060600020100804023E5149453E0072
:10053000427F400072494949462141494D331814D0
:10054000127F1027454545393C4A4949314121111F
:1005500009073649494936464949291E0000140011
:100560000000403400000008142241141414141434
:10057000004122140802015909063E415D594E7C92
:100580001211127C7F494949363E414141227F4147
:1005900041413E7F494949417F090909013E4141A5
:1005A00051737F0808087F00417F41002040413F90
:1005B000017F081422417F404040407F021C027F9F
:1005C0007F0408107F3E4141413E7F090909063EF4
:1005D0004151215E7F0919294626494949320301C3
:1005E0007F01033F4040403F1F2040201F3F4038D5
:1005F000403F631408146303047804036159494DB0
:1006000043007F4141410204081020004141417FE5
:10061000040201020440404040400003070800205B
:10062000545478407F28444438384444442838445B
:1006300044287F385454541800087E090218A4A492
:100640009C787F0804047800447D40002040403DB1
:10065000007F1028440000417F40007C047804782B
:100660007C080404783844444438FC1824241818BE
:10067000242418FC7C08040408485454542404041A
:100680003F44243C4040207C1C2040201C3C403007
:10069000403C44281028444C9090907C4464544C36
:1006A0004400083641000000770000004136080091
:1006B00002010204023C2623263C1EA1A161123A3B
:1006C0004040207A38545455592155557941225487
:1006D000547842215554784020545579400C1E528C
:1006E0007212395555555939545454593955545431
:1006F000580000457C410002457D420001457C4098
:100700007D1211127DF0282528F07C5455450020DB
:1007100054547C547C0A097F4932494949323A444D
:1007200044443A324A4848303A4141217A3A4240B8
:100730002078009DA0A07D3D4242423D3D4040408A
:100740003D3C24FF2424487E4943662B2FFC2F2B5D
:10075000FF0929F620C0887E0903205454794100FE
:1007600000447D413048484A32384040227A007A7D
:100770000A0A727D0D19317D2629292F282629295B
:10078000292630484D40203808080808080808087D
:10079000382F10C8ACBA2F102834FA00007B0000A4
:1007A00008142A142222142A14085500550055AAA8
:1007B00055AA55AAFF55FF55FF000000FF00101075
:1007C00010FF00141414FF001010FF00FF1010F0B1
:1007D00010F0141414FC001414F700FF0000FF00C4
:1007E000FF1414F404FC141417101F10101F101F12
:1007F0001414141F00101010F0000000001F10103F
:1008000010101F10101010F010000000FF1010103A
:10081000101010101010FF10000000FF140000FF57
:1008200000FF00001F10170000FC04F41414171040
:10083000171414F404F40000FF00F7141414141433
:100840001414F700F7141414171410101F101F14A9
:100850001414F4141010F010F000001F101F00000A
:10086000001F14000000FC140000F010F01010FF36
:1008700010FF141414FF141010101F00000000F0DB
:1008800010FFFFFFFFFFF0F0F0F0F0FFFFFF0000B0
:10089000000000FFFF0F0F0F0F0F3844443844FCD7
:1008A0004A4A4A347E02020606027E027E026355EE
:1008B0004941633844443C04407E201E2006027EA9
:1008C000020299A5E7A5991C2A492A1C4C720172BB
:1008D0004C304A4D4D303048784830BC625A463D25
:1008E0003E494949007E0101017E2A2A2A2A2A44DA
:1008F000445F444440514A444040444A514000000F
:10090000FF0103E080FF000008086B6B0836123619
:100910002436060F090F06000018180000001010FA
:10092000003040FF0101001F01011E00191D1712B8
:10093000003C3C3C3C0000000000000103070F1F8E
:100940003F7F0080C0E0F0F8FCFEDB40A4A62EAFA5
:100950002000A1C8D300408DAED580A80000600063
:1009600000000000000000000000000000E00000A7
:10097000000000000000000000000001E000000096
:100980000000000000000000000001F00000000076
:1009900000000000000000000003F0000000000064
:1009A000000000000000000007F000000000000050
:1009B0000000000000000007F80000000000000038
:1009C0000000000000000FF800000003C0007E00DF
:1009D0000001E0007F0FF800000003C000FE0000EF
:1009E00001E000FFEFF800000003C000FE0000017E
:1009F000E000FFFFF800000003C000F00000000F5F
:100A0000007FFE7FC0000003C000F00000000F0068
:100A10003FFE7FF83FF1FBCFFCFEF3BC3DEFE01F54
:100A2000FE7FFF7FFBFFDFFEFEFFBC3DEFE01FC64A
:100A3000FFFF7FFBFFDFFEFEFFBC3DEFE00FE3C7E4
:100A4000FE787BC3DE1EF0FFBC3DEF0007FF87FC96
:100A5000787BC3DE1EF0F83C3DEF0001FFFFF000A5
:100A60007BC3C01EF0F03C3DEF0001F37FE03FFB95
:100A7000C3CFFEF0F03C3DEF0003E33F807FFBC3BC
:100A8000DFFEF0F03C3DEF0007E73C00787BC3DE83
:100A90001EF0F03C3DEF0007FFBE00787BC3DE1E7A
:100AA000F0F03C3DEF0007FFFE00787BC3DE1EF058
:100AB000F03C3DEF000FFFFE007FFBFFDFFEF0F09C
:100AC0003FFDEFE00FFFFF007FFBFFDFFEF0F03F99
:100AD000FDEFE00FF9FF003E79F9CF9EF0F01F3DEA
:100AE000E7E01FF1FF000000000000000000000030
:100AF000001F80FF007FFFFFFFFFFFFFFFFFFFE002
:100B00001C007F007FFFFFFFFEB46D888D18E000A2
:100B1000001F007FFFFFFFFE95AD7DB577E0000071
:100B20000F007FFFFFFFFEA5AD9D8D19E0000006C1
:100B3000007FFFFFFFFEB5ADEDB57EE000000000D9
:100B400000018000000000000000000003800000A1
:100B50000000000000000007C000000000000000CE
:100B6000000007C00000000000000000000FC000EF
:100B700000000000000000001FE000000000000076
:100B80000000001FE00000000000000000003FE047
:100B90000000000000000000003FF0000000000026
:100BA000000000007FF0000000000000001FF87F40
:100BB000F0000000000000003FFE7FF00000000099
:100BC0000000003FFF7FF0000000000000001FFF5A
:100BD000FBE0000000000000000FFFF9FFC0000074
:100BE000000000000FFFF9FFF80000000000000700
:100BF000FFF1FFFF00000000000003FC73FFFF8017
:100C0000000000000001FE3FFFFF80000000000028
:100C100000FF1E0FFF000000000000007FFE1FFC11
:100C2000000000000000003FFFFFF800000000008F
:100C300000000FDFFFE0000000000000001F19FFB0
:100C4000C0000000000000003F3CFF00000000006A
:100C50000000007E7CF800000000000000007FFE25
:100C60007C0000000000000000FFFFFC000000000E
:100C700000000000FFFFFE0000000000000000FF79
:100C8000FFFE0000000000000001FFEFFE0000007A
:100C90000000000001FFCFFE000000000000000384
:100CA000FF07FE0000000000000003FC07FE00003C
:100CB000000000000003F003FE0000000000000040
:100CC000018000FE000000000000000000007E0027
:100CD0000000000000000000003E000000000000D6
:100CE000000000000C000000000000078000FC0075
:100CF0000003C0000000078001FC000003C00000EA
:100D000000078001FC000003C0000000078001E034
:100D10000000001E000000078001E00000001E002F
:100D20007FE3F79FF9FDE7787BDFC0FFF7FFBFFDAB
:100D3000FDFF787BDFC0FFF7FFBFFDFDFF787BDFA6
:100D4000C0F0F787BC3DE1FF787BDE00F0F787BCA1
:100D50003DE1F0787BDE0000F787803DE1E0787BC5
:100D6000DE007FF7879FFDE1E0787BDE00FFF787FD
:100D7000BFFDE1E0787BDE00F0F787BC3DE1E07885
:100D80007BDE00F0F787BC3DE1E0787BDE00F0F72A
:100D900087BC3DE1E0787BDE00FFF7FFBFFDE1E0CF
:100DA0007FFBDFC0FFF7FFBFFDE1E07FFBDFC07C23
:100DB000F3F39F3DE1E03E7BCFC000000000000068
:100DC0000000000000FFFFFFFFFFFFFFFFFFFFC06D
:100DD000FFFFFFFFFD68DB111A31C0FFFFFFFFFDC2
:100DE0002B5AFB6AEFC0FFFFFFFFFD4B5B3B1A3343
:100DF000C0FFFFFFFFFD6B5BDB6AFDC00901809652
:100E000011800A3A81550A3601082A04000000F0D0
:100E10002B040000014021800A13800A29800A2245
:100E200000FF21007036D84D11241FBECFEFCDBF7B
:100E3000DFE3DEBF20E3A2E1B8E201C01D92A138EA
:100E4000B207E1F718E2A0E0B8E2EFE0F3EB02C08E
:100E500005900D92A231B107D9F717E0C3E1D7E0B1
:100E600004C02197FE010E945752C231D107C9F731
:100E70000E94903C0C94B3570C9400012F923F9227
:100E80004F925F926F927F928F929F92AF92BF929A
:100E9000CF92DF92EF92FF920F931F93CF93DF9346
:100EA000CDB7DEB72E97CDBFDEBF8C879D874C8335
:100EB0005D832E833F8308871987EA86FB86FA01C4
:100EC00010821182F90110821182F70110821182C1
:100ED000F8011082118269837A8322242A94322CA9
:100EE00044244A94542C66246A942FE7722E8FEF80
:100EF0009FE7B0E0A0E070E060E0E981FA81219135
:100F0000E983FA83222309F4D4C0EC85FD85418D61
:100F1000528D4115510509F484C02A3059F4FA0163
:100F200038963491EC85FD852589329FA00DB11D41
:100F30001124E1CF2D3009F3FA0134963491329621
:100F4000E4912317D0F2E217C0F2FA013296E5904D
:100F5000F490231BF7E02F9FE00CF11C1124F70104
:100F6000329604910E87319624912B83319684908A
:100F70003196349131962491EC85FD851489A12E0A
:100F8000B12C958807890023F1F00E85C02ED12C55
:100F9000C30ED11C37FDDA94CA9C7001CB9CF00CB7
:100FA000DA9CF00C1124E60EF71EC084D184CE1416
:100FB000DF044CF4FA013896E491E99DA00DB11DCF
:100FC000112470E060E03103A0011124460F571F87
:100FD000092D2003900111242A0F3B1F48175907A0
:100FE0000CF4CA01261537050CF439010E85019F52
:100FF000400D511D112441505109441655060CF461
:101000002A014B81499D200D311D112421503109A8
:10101000221633060CF41901819E600D711D1124F6
:101020006CCF2A3051F4EC85FD852589F8E02F9F9F
:1010300090011124A20FB31F5ECF2D3009F45DCFB4
:10104000EC85FD854489F6E04F9FA0011124EC85D5
:10105000FD852589F8E02F9F90011124EC85FD8501
:101060001789112361F000851185FB01E40FF51F3D
:101070000E171F0724F4A20FB31F70E060E0460FA5
:10108000571FFA0131974E165F060CF42F012A0FF5
:101090003B1F21503109221633060CF41901681741
:1010A00079070CF4CB01A615B7050CF43D01BA0184
:1010B00024CF481659066CF0EC81FD818083918322
:1010C000481A590AFFEF4F1A5F0AE885F9854082EE
:1010D0005182261437046CF0EE81FF8160827182A8
:1010E00026183708FFEF2F1A3F0AEA85FB85208272
:1010F00031822E96CDBFDEBFDF91CF911F910F9130
:10110000FF90EF90DF90CF90BF90AF909F908F9027
:101110007F906F905F904F903F902F90089508952B
:10112000FC018BE691EF80839183128213821286F9
:1011300013861486158616821782108611868DE610
:1011400090E08483958384E09FE086879787089565
:10115000AF92BF92CF92DF92EF92FF920F931F93C5
:10116000CF93DF93CDB7DEB72897CDBFDEBF5B014E
:101170006A01EDEBFFE2208531852B833C832285DC
:10118000338529833A839E012F5F3F4F79018E017A
:101190000D5F1F4F2C5F3F4FAE01495F5F4FBC019A
:1011A000CF010E943E072B813C8136952795B501E2
:1011B000621B730BC6012896CDBFDEBFDF91CF91B6
:1011C0001F910F91FF90EF90DF90CF90BF90AF9065
:1011D00008958F929F92AF92BF92CF92DF92EF923B
:1011E000FF920F931F93CF93DF934B015C01C7E5F1
:1011F000D0E30DA16D8D7E8D072E000C880B990B11
:101200000E949A506B017C0110E0B801012E000C85
:10121000880B990B0E949A509B01AC01C501B40147
:101220000E94B1524B015C016BA17CA1601B710B50
:1012300090E080E00E9498509B01AC01C501B40190
:101240000E9423534B015C016F89788D90E080E010
:101250000E9498509B01AC01C501B4010E94F95055
:101260009B01AC01C701B6010E94B1520E949C5380
:10127000CB01DF91CF911F910F91FF90EF90DF9005
:10128000CF90BF90AF909F908F9008958F929F9234
:10129000AF92BF92CF92DF92EF92FF920F931F9384
:1012A000CF93DF93FC018681882319F081FF0EC064
:1012B0007894DF91CF911F910F91FF90EF90DF9085
:1012C000CF90BF90AF909F908F90089580FFF1CF07
:1012D00080849184A284B384C12CD12C760110E047
:1012E0009401A501B601C701A0E00E94915299F1B5
:1012F000217030E040E050E060E070E080E090E09D
:101300000E949152D9F0D0E0C0E0103370F4C12FA8
:10131000C695C695C69580E2C89FE0011124C05FBE
:10132000DB4F812F8770C80FD11DCF01810F911D19
:10133000DC0150968C919881892B88839401A501BA
:10134000B601C70101E00E94765249015A016B01C2
:101350007C011F5FC5CF84849584A684B784C12C8B
:10136000D12C760110E29401A501B601C701A0E0DD
:101370000E94915209F49DCF217030E040E050E08E
:1013800060E070E080E090E00E949152D9F0D0E0FF
:10139000C0E0103370F4C12FC695C695C695B0E273
:1013A000CB9FE0011124C05FDB4F812F8770C80FF6
:1013B000D11DCF01810F911DDC0150968C91988138
:1013C000892B88839401A501B601C70101E00E9421
:1013D000765249015A016B017C011F5FC4CF8F9285
:1013E0009F92AF92BF92CF92DF92EF92FF920F93B4
:1013F0001F93CF93DF93FC01C62F172F868188237D
:1014000019F081FF12C0F894C093C0081093C1086E
:10141000DF91CF911F910F91FF90EF90DF90CF90D0
:10142000BF90AF909F908F90089580FFEDCF808404
:101430009184A284B384C12CD12C7601D0E0940194
:10144000A501B601C701A0E00E949152B1F121703F
:1014500030E040E050E060E070E080E090E00E942A
:101460009152F1F090E080E0D03370F48D2F8695AA
:101470008695869520E2829FC0011124805F9B4F54
:101480002D2F2770820F911DDC014C919F012D0F94
:10149000311DD90150964C93DC012C91287F2C935F
:1014A0009401A501B601C70101E00E9476524901ED
:1014B0005A016B017C01DF5FC2CF84849584A684CE
:1014C000B784C12CD12C7601D0E29401A501B601DC
:1014D000C701A0E00E94915209F496CF217030E03C
:1014E00040E050E060E070E080E090E00E949152C7
:1014F000F1F090E080E0D03370F48D2F86958695E2
:101500008695B0E28B9FC0011124805F9B4F2D2FE9
:101510002770820F911DDC014C919F012D0F311D11
:10152000D90150964C93DC012C91287F2C93940187
:10153000A501B601C70101E00E94765249015A0196
:101540006B017C01DF5FC1CFFC01508D418D252FE8
:1015500030E0842F90E0821B930B541710F0CF964D
:10156000089501970895FC0196898789981761F07D
:10157000A789AE0FBF2FB11D5D968C9197899F5F94
:101580009F73978B90E008958FEF9FEF0895FC0174
:1015900096898789981731F08789E80FF11D858D25
:1015A00090E008958FEF9FEF0895FC0196892789B9
:1015B000892F90E0805C9F4F821B91098F73992740
:1015C0000895CF93DF93EC01E881F9810680F781DC
:1015D000E02D0995EC85FD8586818F738683EC85EA
:1015E000FD8585818F7585838F898E8B1D8ADF911F
:1015F000CF910895FC01613019F4648B81E0089566
:10160000148A6623D9F380E00895DC0154961C9275
:10161000549754968C9154978230A0F4282F30E040
:10162000F901EE0FFF1FE20FF31FEA0FFB1F978573
:10163000961303C09685941749F08F5F54968C9348
:101640005497E7CF54961C9280E0089581E0089566
:10165000CF93DF93FC01908D818DC485D585981340
:1016600006C08D818F7D8D83DF91CF910895A18DEF
:10167000AE0FBF2FB11DA35ABF4F2C91818D90E0AB
:1016800001968F739927818F80E48C83A485B5851B
:1016900012962C93908D818D9813E6CFA485B585F5
:1016A00015968C9115978F7D15968C93838D882335
:1016B000D9F2848D80931301138ED6CFDC011C9652
:1016C000ED91FC910FB607FE03C0258125FD04C0F6
:1016D000248125FD0C94280B0895EF92FF920F931F
:1016E0001F93CF93DF93EC0181E08D8B988D898DD3
:1016F00098131CC0AC85BD8514968C91149785FFFA
:1017000015C012966C93AC85BD8580E414968C93BD
:10171000EC85FD8585818F7D858381E090E0DF917B
:10172000CF911F910F91FF90EF900895809111013B
:1017300080FF08C0809113018C8F8A8D80931301E4
:1017400081E08B8FF62E088D10E00F5F1F4F0F7317
:101750001127E02E898D8E1104C0CE010E945E0BF0
:10176000F9CFE88DEC0FFD2FF11DE35AFF4FF0820A
:10177000088FEC85FD8585818062CECFCF93DF9386
:10178000FC0125892223C9F0EC018091110180FF21
:1017900008C080911301848F828D8093130181E0B2
:1017A000838FEC85FD85858185FD03C0848186FD61
:1017B00004C0CE010E945E0BF4CFDF91CF9108955B
:1017C00089EB98E20E94D50A21E0892B09F420E0F8
:1017D000822F089580E090E0892B29F00E94E00B91
:1017E00081110E94000080E090E0892B49F080E0A8
:1017F00090E0892B29F00E94000081110E940000D6
:1018000080E090E0892B49F080E090E0892B29F07E
:101810000E94000081110E94000080E090E0892B6E
:1018200049F080E090E0892B29F00E9400008111AE
:101830000C9400000895CF93DF9390E0FC01E359EE
:10184000FE4020812F3F69F0FC01EA56FE40A08156
:1018500030E2A39FD0011124BC5F613029F41196BE
:101860002C93DF91CF9108958A5F9E40EC01E8812F
:10187000EF3F81F0CD014096E80FF92FF11D9FB7A2
:10188000F89412962C938081623039F488608083BA
:101890009FBFE7CFF0E0E0E0F2CF877FF8CF89325B
:1018A00010F40C941B0C0895FC01858181110CC06F
:1018B0001682178210861186128613861486158664
:1018C0001686178681E085838091E3058C7F94815D
:1018D000892B8093E305848181111BC061E084E042
:1018E0000E941B0C61E086E00E941B0C8091C108E5
:1018F00084608093C1088091C00881628093C00891
:101900009091B7288091B8289093C0088093C1081F
:101910000895813039F461E08EE00E941B0C61E093
:1019200080E1E2CF823011F761E08EE10E941B0C72
:1019300061E080E2D9CF90E0FC01E352FF40E0811A
:10194000EE2319F1E13021F000F1E630A8F008951E
:101950008A5F9E40FC012081233008F02F5F309188
:10196000010A81E090E001C0880F2A95EAF780958E
:1019700083238093010A089580E1E89FF0011124F8
:10198000E05AF54F81818F7E818308950F931F93D5
:10199000CF93DF938932D0F4082F10E0F801E35998
:1019A000FE40D081DF3F91F0C62F0E949B0CF801D2
:1019B000EA56FE40E08180E2E89FF0011124FC5FDE
:1019C00080818D2371F0C11106C0D683DF91CF9144
:1019D0001F910F910895C43011F4D783F7CFD583A9
:1019E000F5CFD801AA5FBE408C91309771F08F3F40
:1019F00061F07096E80FF11D9FB7F8948081C111D6
:101A000007C0877F80839FBFE1CFF0E0E0E0F4CFA5
:101A10008860F8CFAF92BF92CF92DF92EF92FF92A1
:101A20000F931F93CF93DF93EC016A017B01A22EEA
:101A30008D89882339F0E881F9810688F789E02DBE
:101A4000CE0109950C8910E0BFB6F89460E070E211
:101A500081EA97E0A70196010E94165269017A0176
:101A60008FEFC81AD80AE80AF80AF694E794D794D0
:101A7000C794EC85FD8586818D7F8683EC85FD8509
:101A8000868186831D8AA09123110A2E000CBB0B30
:101A9000A70196010E946C5220E034E040E050E043
:101AA0000E943852EC85FD85C20ED31EE41EF51E41
:101AB000C086D186EC85FD85A782EC85FD85868173
:101AC000806C8683EC85FD85858180688583909117
:101AD000E2058B89809589239801220F331F020F1D
:101AE000131FC00FD11F9889892B8093E20562E0F4
:101AF0008E850E944F0C61E08F850E94C60C61E0CC
:101B00008F850E944F0CBFBEDF91CF911F910F9127
:101B1000FF90EF90DF90CF90BF90AF900895EF923D
:101B2000FF920F931F93CF93DF93E82EF12CF701D1
:101B3000EA5FFE4000810F3FE1F1EB01182F61E009
:101B40000E944F0C1C161D0654F060E0812FDF919F
:101B5000CF911F910F91FF90EF900C94C60CCF3F47
:101B6000D10514F061E0F2CFF701E352FF40E081CC
:101B7000E13039F010F0E63030F1C038D10594F79B
:101B8000E4CFE02FF0E0EE0FFF1F0330C8F0ED5D73
:101B9000F54F0F5F8FB7F894C0838FBF8091010A14
:101BA00021E030E001C0220F0A95EAF7822B8093F2
:101BB000010ADF91CF911F910F91FF90EF9008954F
:101BC000E85DF54FE7CF80E1E89FF0011124E05A8E
:101BD000F54F8FB7F89494859487C5878FBF81811F
:101BE00080618183E6CF8031D8F09AEE980F9C30E7
:101BF00030F09CED980F943080F498EE980F90930D
:101C0000060681E08093080680910B0680FFFCCFDA
:101C1000809110069091110608958FEF90E008953D
:101C2000982FEDCFCF92DF92EF92FF92CF93DF9379
:101C3000C3EADFE28C810E94F30DC880D980EA807C
:101C4000FB80BC0190E080E00E94985020E030ECE6
:101C50004FE754E40E942353A70196010E94F950D4
:101C60009B01AC0160E070E080E290E40E942353AD
:101C7000A70196010E94F950DF91CF91FF90EF905C
:101C8000DF90CF900895CF92DF92EF92FF92CF93A3
:101C9000DF930E94120ECAE0D0E0C12CD12C760155
:101CA0008091A82F0E94F30DBC01990F880B990B0E
:101CB0000E949A509B01AC01C701B6010E94B2522A
:101CC0006B017C01219761F720E030E040E251E4B4
:101CD0000E9423532091A32F3091A42F4091A52F30
:101CE0005091A62F0E94F95020E030E040E85AE3DE
:101CF0000E94F9502AE939E949EB50E40E94F95071
:101D0000DF91CF91FF90EF90DF90CF9008958FB744
:101D1000F894209171283091722840917328509145
:101D20007428E091AA0AF091AB0A9091A60A90FF5C
:101D300008C02F5F3F4F4F4F5F4FE091AA0AF091CD
:101D4000AB0A8FBFA8EEB3E00E94B75124E0F6952E
:101D5000E7952A95E1F76E0F7F1F811D911D08956C
:101D60000C94870E8F929F92AF92BF92CF92DF9288
:101D7000EF92FF924B015C010E94870E6B017C0188
:101D8000A8EEB3E0A50194010E94B751C60ED71E7C
:101D9000E81EF91EC616D706E806F90618F40E94D2
:101DA000870EF8CF0E94870E6C157D058E059F0566
:101DB000C8F3FF90EF90DF90CF90BF90AF909F90CF
:101DC0008F9008952FB7F8946091712870917228C0
:101DD00080917328909174282FBF08950E94E20E7D
:101DE00028EE33E040E050E00E941652CA01B901EB
:101DF00008950E94E20E20E63AEE40E050E00E9494
:101E00001652CA01B90108950C94E20ECF93DF93E4
:101E1000EC018881882349F00E94870E6D837E83C0
:101E20008F839887DF91CF9108950E94E20EF6CFBD
:101E3000AF92BF92CF92DF92EF92FF920F931F93D8
:101E4000CF93DF936C017B018B01040F151FEB0116
:101E50005E01AE18BF08C017D10759F06991D601CD
:101E6000ED91FC910190F081E02DC6010995892B3F
:101E700079F7C501DF91CF911F910F91FF90EF90FE
:101E8000DF90CF90BF90AF90089581E008950F93B9
:101E90001F93CF93DF93EC018A819B81019781F49B
:101EA000EE85FF8509950E811F8128853985601B88
:101EB000710B820B930BDF91CF911F910F910895BE
:101EC0006A857B858C859D85EECF0F931F93CF937D
:101ED000DF93FC01228133812D7F232B19F5EC0147
:101EE00081E090E0828393830684F785E02D099555
:101EF000AB01BC018E819F81A885B9850A851B85B0
:101F00002C853D85801B910BA20BB30B840F951F75
:101F1000A61FB71F8E839F83A887B9874A875B87D1
:101F20006C877D87DF91CF911F910F910895EF927C
:101F3000FF920F931F93CF93DF93EC01EC80FD8012
:101F40006E157F050CF070C057FF04C0240F351FBD
:101F500050E040E08E819F81FA01E20FF31F8E175F
:101F60009F071CF49C01241B350B121613060CF062
:101F70005BC0922F842F8695869586958E9DD00185
:101F80008F9DB00D11246A0F7B1FAF8DB8A1A60FD6
:101F9000B71F477049F188E0841B482F682F70E015
:101FA000FB01EE5BF64FE491281708F063C0621B5B
:101FB00071092FEF30E002C0359527956A95E2F759
:101FC000E2230130110539F0B0F10230110561F55D
:101FD0008C91E82702C08C91E82BEC93941720F1A8
:101FE0002C813D81A20FB31FE92FE41BE83078F06C
:101FF0000230110521F58E2F9C9190959C932C8198
:102000003D81A20FB31F88508830B0F7E770EE23F0
:1020100059F0F0E0E65CF64FE49101301105F9F07B
:1020200010F10230110519F1DF91CF911F910F913D
:10203000FF90EF900895E0958C91E823CECF81E05A
:102040000115110509F480E081959E2F8C932C8158
:102050003D81A20FB31F98509830C0F7D7CF8C9115
:10206000E82BEC93E1CFE0958C91E823FACF8C91AB
:10207000E827F7CF0130110509F4ADCFE0F20230C7
:10208000110509F4A5CFAE0DBF1DAECF0F931F9361
:10209000CF93DF9377FF04C0260F371F70E060E017
:1020A000DC011496CD91DC91FB01E20FF31FCE17FA
:1020B000DF071CF49E01261B370B121613064CF586
:1020C000FA0157FD3796A3E0F595E795AA95E1F754
:1020D000EC9FD001ED9FB00DFC9FB00D11246A0F55
:1020E0007B1FDC015F96ED91FC91E60FF71F4770B7
:1020F000552781E090E001C0880F4A95EAF7482F04
:102100000130110559F0A8F02E0F3F1F02301105C4
:10211000E1F0DF91CF911F910F9108952E0F3F1F96
:10212000E217F307B1F38191DF011197842B8C93B0
:10213000F7CF80952E0F3F1FE217F30751F39191D0
:10214000DF01119798239C93F7CFE217F30709F368
:102150008191DF01119784278C93F7CF0F931F9301
:10216000FA01DC0156964C9156974230E9F0433023
:10217000A1F1413061F514964D915C91DA01AE1BED
:10218000BF0BFD01E21BF30B77FD0BC0DC011696C4
:102190004D915C916417750724F4AB01BF010E9457
:1021A00046101F910F91089514964D915C91DA019C
:1021B000A61BB70BBD0161507109DC0116964D914C
:1021C0005C91DA01AE1BBF0BFD01E21BF30B77FD47
:1021D000E8CFAF010E94970FE4CF16964D915C9126
:1021E000DA01A61BB70BBD0161507109CDCF0F936A
:1021F0001F93FA01DC0156964C9156974230A9F094
:10220000433091F1413019F514964D915C91DA010A
:10221000AE1BBF0BFD013197F7FD04C0AB01BF0141
:102220000E94970F1F910F91089514964D915C9104
:10223000DA01A61BB70BBD01DC0116964D915C912E
:10224000DA01AE1BBF0BFD013197621B730BF7FD6B
:10225000E9CFDC0116964D915C91E417F50714F770
:10226000AF010E944610DECF16964D915C91DA01C7
:10227000A61BB70BBD01621B730BCECFFC0177FD14
:1022800064C080859185681779070CF05EC057FDA2
:102290005CC082859385481759070CF056C0868923
:1022A0008230B1F0833029F1813041F4848195810D
:1022B000841B950BAB01BC016150710921303105C4
:1022C00009F108F443C02230310509F463C00895D0
:1022D00084819581DC01A61BB70BBD01615071099A
:1022E00086819781DC01A41BB50BAD0141505109DA
:1022F000E5CF86819781861B970BBA01AC014150CF
:102300005109DCCFCA0157FD0796A3E09595879543
:10231000AA95E1F7A481B5818A9F90018B9F300D2A
:102320009A9F300D1124620F731F078CF0A1E02DCE
:10233000E60FF71F4770552721E030E001C0220F5C
:102340004A95EAF78081822B80830895CA0157FD60
:10235000079633E0959587953A95E1F7A481B58185
:102360008A9F90018B9F300D9A9F300D1124620F30
:10237000731F078CF0A1E02DE60FF71F477055275C
:1023800081E090E001C0880F4A95EAF7809590813E
:102390008923DACFCA0157FD079623E095958795E3
:1023A0002A95E1F7A481B5818A9F90018B9F300D1A
:1023B0009A9F300D1124620F731F078CF0A1E02D3E
:1023C000E60FF71F4770552721E030E001C0220FCC
:1023D0004A95EAF780818227B7CF2F923F924F929A
:1023E0005F926F927F928F929F92AF92BF92CF92A5
:1023F000DF92EF92FF920F931F93CF93DF93CDB7AE
:10240000DEB76197CDBFDEBF1C019C012A593F4F4B
:1024100029833A83D9018C91882309F45EC20E94F2
:10242000870EE981FA81C580D680E780F0846C153B
:102430007D058E059F0508F053C297018601009522
:10244000109520953095060F171F281F391F0183FF
:10245000128323833483A981BA8111964D915D91B2
:102460006D917C91149719960D911D912D913C9130
:102470001C97401751076207730708F418C2D70169
:10248000C601800F911FA21FB31FE981FA818583C6
:102490009683A783B087F101EE59FF4F8081918128
:1024A000019709F004C29101285B3F4F2E873F87B7
:1024B000F10184AD95ADA6ADB7ADF90180839183EF
:1024C000A283B383389740805180628073802C5FF1
:1024D0003F4F29833A83C101805B9F4F8B839C834D
:1024E000411551056105710509F407C2CB01BA0117
:1024F0000E94985020E030E04AE754E40E942353C1
:102500006B017C01A30192010E94F950A981BA815B
:102510006D937D938D939C931397A7019601F10181
:10252000EC5BFF4F60817181828193810E94235314
:10253000EB81FC816083718382839383F101EC5989
:10254000FF4F80819181019719F5EB81FC8180819A
:102550009181A281B381EE85FF85408151816281A5
:10256000738170584083518362837383E981FA8158
:1025700040815181628173817058408351836283AD
:102580007383B058EB81FC8180839183A283B383F2
:10259000D1019C968D909D90AD90BC909F97F1013C
:1025A00080AE91AEA2AEB3AE80A591A5A2A5B3A513
:1025B00084AB95ABA6ABB7AB84A195A1A6A1B7A1FF
:1025C0008D839E83AF83B88780AB91ABA2ABB3AB57
:1025D00002811381D8012D913D914D915C9124A7E9
:1025E00035A746A757A70680F781E02D6081718146
:1025F00082819381D10198966D937D938D939C9365
:102600009B970E94B1526B017C01F101C4A2D5A23B
:10261000E6A2F7A2A5019401D8016D917D918D915B
:102620009C910E94B1524B015C01F101E05AFF4FB5
:102630008081918181010C5A1F4F009709F06BC175
:10264000A7019601EE85FF8560817181828193816A
:102650000E94F950D8016D937D938D939C931397AD
:10266000EB81FC8160817181828193819058A50109
:1026700094010E94F9504B015C01F101E45AFF4FB3
:1026800080829182A282B38220E030E0A901C3015E
:10269000B2010E9493509101285A3F4F2E873F87E5
:1026A000882309F445C1A70196016D817E818F8140
:1026B00098850E94B25220E030E040E05FE30E9443
:1026C000F950A981BA812D913D914D915C910E9463
:1026D000F950EE85FF8520813181428153810E942E
:1026E000B2523B018B839983D1015896CC90589775
:1026F0005996DC9059975A96EC905A975B96FC90B5
:102700009601A701B3018B8199810E94935087FDA7
:1027100011C0F101C488D588E688F7889601A70121
:10272000B3018B8199810E940A5418161CF0630131
:10273000EB80F980D8012D913D914D915C91F10193
:1027400060857185828593850E94B252A5019401AE
:102750000E94B2522B013C01D1011C96BC91BA8758
:10276000F101F585FB87D1011E96BC91BC87F10173
:10277000F785FD87AC019B016A857B858B2F9F2F99
:102780000E94B1524B018D83998720E030E0A9016E
:102790000E94935087FDD1C094014D8159856A856F
:1027A0007B858C859D850E94935087FF06C08A8417
:1027B0009B842C852D833D853987D1015096BC9112
:1027C000B983F101F189FB83D1015296AC90529704
:1027D0005396BC90A301920169817F2FC5010E948D
:1027E000B1528B01898B988B9B01AC0169817B81F4
:1027F000C5010E940A5418160CF4A4C020E030E071
:10280000A901B801898998890E940A54181624F4EC
:1028100000E010E0198A188A980149895889B601A0
:10282000C7010E94935087FD0DC094014D815985C9
:10283000B601C7010E940A5418160CF488C086011C
:10284000E98AF88AC801A989B889EE85FF8580835D
:102850009183A283B3839801AD01C301B2010E94A9
:10286000B2528B0189879D839B01AC0169817B8179
:10287000C5010E940A5418167CF0980149855D81B3
:102880006A857B858C859D850E94935087FD65C0F8
:1028900009831B83A984BD80D1011496ED91FC911D
:1028A00089819B81D50180839183A283B3836196C3
:1028B000CDBFDEBFDF91CF911F910F91FF90EF90C1
:1028C000DF90CF90BF90AF909F908F907F906F9050
:1028D0005F904F903F902F9008950E94E20EA1CDFF
:1028E000AB01BC014C195D096E097F09E981FA81D0
:1028F0004183528363837483AECDA981BA811D92D3
:102900001D921D921C921397EB81FC811082118203
:102910001282138213CE019709F0A2CEEE85FF85B5
:1029200060817181828193819058A501940190CE3C
:10293000612C712C1B821982D7CE812C912C1D8287
:1029400019863BCF09811B81A98AB88A65CF84018A
:10295000BD81B98BE985E88B75CFFA85F9832B8525
:102960002B83AC84BD8498CFFC0114A215A216A2BF
:1029700017A210A611A612A613A614A615A616A68F
:1029800017A610AA11AA12AA13AA14AA15AA16AA5F
:1029900017AA10AE11AE12AE13AEDC01AC5ABF4F87
:1029A0001D921D921D921C92139714961D921D92BA
:1029B0001D921C92139714961D921D921D921C92AB
:1029C00013978A599F4F0C94060FE091782AF09143
:1029D000792A10861186128613866FEF70E081E1E6
:1029E0000E948F0D85E09AE20E94B4148091672ABC
:1029F0009091682A892B21F01092672A1092682AF8
:102A000008952F923F924F925F926F927F928F9292
:102A10009F92AF92BF92CF92DF92EF92FF920F936D
:102A20001F93CF93DF9300D0CDB7DEB73C01F80101
:102A30008F89988D89839A83098D1A8DD301129677
:102A40006D937C93139714964D935C9315971696FC
:102A50002D933C931797208031804280538020E053
:102A600030E0A901C201B1010E940A5487FD35C0BE
:102A700020E030E0A901F7016081718182819381BA
:102A80000E940A5487FD29C020E030E0A901D60148
:102A90006D917D918D919C910E940A5487FD1DC07E
:102AA000F30124AE35AE46AE57AEF7018081918179
:102AB000A281B381F301E05CFF4F80839183A28305
:102AC000B383F60180819181A281B381F301EC5B34
:102AD000FF4F80839183A283B383D5018D919C9115
:102AE000F301E05AFF4F80839183F8018081918147
:102AF000A281B381F30180879187A287B387D40134
:102B00008D919C91EC59FF4F8083918383010E59E5
:102B10001F4FF80180819181019719F4C3010E9430
:102B2000B414A981BA814D915C9170E060E0C30159
:102B30008A599F4FFC0110824187528763877487AF
:102B40000E94060FC3010E94B414F8018081918194
:102B50000197D9F081E090E080839183C3010F90C9
:102B60000F90DF91CF911F910F91FF90EF90DF9029
:102B7000CF90BF90AF909F908F907F906F905F901D
:102B80004F903F902F900C94B4140F900F90DF91C2
:102B9000CF911F910F91FF90EF90DF90CF90BF905A
:102BA000AF909F908F907F906F905F904F903F90ED
:102BB0002F900895FC01A5A1B6A18C9192A589231F
:102BC0008C93A5A1B6A18C9191A5892B8C93089586
:102BD000DC019396ED91FC919497908198968C915D
:102BE000892380830895DC019396ED91FC9194975D
:102BF000908197968C91892B80830895DC01919622
:102C0000ED91FC919297908196968C918923808387
:102C10000895DC019196ED91FC91929790819596A3
:102C20008C91892B80830895CF92DF92EF92FF924F
:102C30001F93CF93DF93EC016A017B018DA9811172
:102C40002BC08F2D9927AA27BB278093C40880917A
:102C5000C30887FFFCCFC701AA27BB278093C408FE
:102C60008091C30887FFFCCFBB27AF2D9E2D8D2DF4
:102C70008093C4088091C30887FFFCCFC092C4082A
:102C80008091C30887FFFCCFDF91CF911F91FF9008
:102C9000EF90DF90CF9008958130B1F410E2CE0133
:102CA000F7FE0FC00E940916CE010E94F315CE0157
:102CB0000E94E815CC0CDD1CEE1CFF1C115079F7AE
:102CC000E3CF0E94FE15F0CFEF8DF8A18F2D99274D
:102CD000AA27BB278083CE010E94DA15EF8DF8A1C9
:102CE000C701AA27BB278083CE010E94DA15EF8D8A
:102CF000F8A1BB27AF2D9E2D8D2D8083CE010E9484
:102D0000DA15EF8DF8A1C082CE01DF91CF911F912E
:102D1000FF90EF90DF90CF900C94DA15FF920F9315
:102D20001F93CF93DF93EC018B018DA9811112C00A
:102D30001093C4088091C30887FFFCCF0093C40898
:102D40008091C30887FFFCCFDF91CF911F910F9136
:102D5000FF9008958130B1F490E1F92ECE0117FF74
:102D60000EC00E940916CE010E94F315CE010E94EA
:102D7000E815000F111FFA94F110F0CFE5CF0E9473
:102D8000FE15F1CFEF8DF8A11083CE010E94DA1568
:102D9000EF8DF8A10083CE01DF91CF911F910F91AC
:102DA000FF900C94DA150F931F93CF93DF93EC01F0
:102DB000162F8DA981110BC06093C4088091C308A0
:102DC00087FFFCCFDF91CF911F910F910895813044
:102DD00099F408E0CE0117FF0CC00E940916CE013D
:102DE0000E94F315110FCE010E94E815015091F7D2
:102DF000E9CF0E94FE15F3CFEF8DF8A16083CE01DD
:102E0000DF91CF911F910F910C94DA15CF93DF933F
:102E1000EC01ED8DFE8D80819CA989238083CE01FC
:102E20000E94D316ED8DFE8D80819BA9892B808316
:102E3000DF91CF9108958F929F92AF92BF92CF92E0
:102E4000DF92EF92FF920F931F93CF93DF93EC01EA
:102E500089AD9AAD680F791F8BAD9CAD480F591F96
:102E600021503109260F371F4901B12CA12CCB016C
:102E7000B0E0A0E0DC0199278827882A992AAA2AAD
:102E8000BB2A680181E0C81AD108C40ED51EF12CF6
:102E9000E12C70E060E0BA0155274427C42AD52A06
:102EA000E62AF72A6AE2CE010E940617B501A401BC
:102EB000CE010E9414166BE2CE010E940617B701E4
:102EC000A601CE010E9414166CE2CE01DF91CF91D3
:102ED0001F910F91FF90EF90DF90CF90BF90AF9038
:102EE0009F908F900C940617FC0185A9811106C054
:102EF00061A172A1878D90A10C94EF0908950F93A1
:102F00001F93CF93DF93EC018B010E9474178FA95D
:102F100087FD06C0EB8DFC8D80819AA98923808373
:102F2000ED8DFE8D80819CA98923808366E3CE018F
:102F30000E94D316ED8DFE8D80819BA9892B808305
:102F40008DA9F8018230C1F06081CE010E94D316B4
:102F50008FA987FD06C0EB8DFC8D808199A9892BF7
:102F600080838DA9811111C08F8D98A1DF91CF91A0
:102F70001F910F910C94460988A9882329F3608139
:102F80007181CE010E948E16E3CFDF91CF911F9108
:102F90000F910895CF93DF931F92CDB7DEB7FC0159
:102FA00019826370668BDC01AD5BBF4F2C9130E002
:102FB00011968C9190E0623031F06330C9F061304D
:102FC00081F040EC498321AF32AF83AF94AFBE01B3
:102FD0006F5F7F4FCF010E947F170F90DF91CF91DE
:102FE000089540EA498323AF34AF81AF92AFEFCF6A
:102FF00040E6F8CF0F931F93CF93DF931F92CDB787
:10300000DEB7FC0119826370668BDC01A85BBF4FE1
:103010002D913C91119712968D919C916230D1F136
:10302000633009F440C08F010C5B1F4F6130F9F031
:1030300040EC4983AF014D5B5F4FDA014C9150E0AA
:1030400041AF52AFD8014C9150E043AF54AF20870D
:10305000318782879387BE016F5F7F4FCF010E94C8
:103060007F170F90DF91CF911F910F91089540EA44
:103070004983D8014C9150E041AF52AFDF01AA5BC8
:10308000BF4F4C9150E043AF54AF228733878087C6
:103090009187E1CFDF01AA5BBF4F4C9150E041AF78
:1030A00052AF1196D0CF40E64983DF01A95BBF4FF5
:1030B0004C9150E041AF52AF1497E3CF1F93CF93A1
:1030C000DF93EC01162FE881F9810284F385E02D6E
:1030D0000995112371F06DADCE010E940617E881AC
:1030E000F9810688F789E02DCE01DF91CF911F91FC
:1030F00009946EADF1CFAF92BF92CF92DF92EF9273
:10310000FF920F931F93CF93DF93EC0177FD38C0AD
:1031100088859985681779079CF557FD31C08A85A0
:103120009B854817590764F569017A015B01E881BD
:10313000F9810284F385E02DCE010995E881F981BA
:1031400002A4F3A5E02D01E010E021E030E0A701AA
:10315000B501CE010995B601CE010E948E16E88117
:10316000F9810688F789E02DCE01DF91CF911F917B
:103170000F91FF90EF90DF90CF90BF90AF900994A8
:10318000DF91CF911F910F91FF90EF90DF90CF9043
:10319000BF90AF9008958F929F92AF92BF92CF92BF
:1031A000DF92EF92FF920F931F93CF93DF93EC0187
:1031B00049015701E881F98102A4F3A5E02D0995A1
:1031C0009401D8010E945D526B017C01C114D104AD
:1031D000E104F10409F481C08DA9811119C081E0D5
:1031E000C81AD108E108F1088FEFC816D806E8061A
:1031F000F80609F472C0B092C4088091C30887FF32
:10320000FCCFA092C4088091C30887FFFCCFE7CF12
:10321000813099F581E0C81AD108E108F1088FEFF3
:10322000C816D806E806F80609F457C00B2D18E0B2
:10323000CE0107FF1CC00E940916CE010E94F315A3
:10324000CE010E94E815000F115091F70A2D18E0E9
:10325000CE0107FF0FC00E940916CE010E94F31590
:10326000CE010E94E815000F115091F7D3CF0E94B4
:10327000FE15E3CF0E94FE15F0CFBA1016C0CC0C9D
:10328000DD1CEE1CFF1CEF8DF8A1B08281E0C81A96
:10329000D108E108F1088FEFC816D806E806F8064D
:1032A000E1F0CE010E94DA15F1CF81E0C81AD10811
:1032B000E108F1088FEFC816D806E806F80669F0AD
:1032C000EF8DF8A1B082CE010E94DA15EF8DF8A142
:1032D000A082CE010E94DA15E8CFDF91CF911F9135
:1032E0000F91FF90EF90DF90CF90BF90AF909F90A5
:1032F0008F9008958F929F92AF92BF92CF92DF925C
:10330000EF92FF920F931F93CF93DF935C014B01DA
:103310006A01E90177FD52C0DC0118968D919C91FC
:10332000681779070CF04AC0209709F447C037FFA7
:1033300007C0C9010196C80ED91ED195C195D10902
:10334000F50182859385C816D906C4F5A6014C0FF0
:103350005D1F9A012150310937FD30C0D7FE03C0EF
:10336000EA01D12CC12C281739071CF0EC01CC192B
:10337000DD09D501ED91FC910284F385E02DC501B5
:10338000099578018E0121E030E0A601B401C50164
:103390000E94CB18D501ED91FC910688F789E02DAC
:1033A000C501DF91CF911F910F91FF90EF90DF90BA
:1033B000CF90BF90AF909F908F900994DF91CF9165
:1033C0001F910F91FF90EF90DF90CF90BF90AF9043
:1033D0009F908F9008958F929F92AF92BF92CF92BD
:1033E000DF92EF92FF920F931F93CF93DF935C01D5
:1033F0006B014A01E90157FD52C0DC011A968D911B
:103400009C91481759070CF04AC0209709F447C00F
:1034100037FF07C0C9010196C80ED91ED195C195C5
:10342000D109F50180859185C816D906C4F5A60194
:103430004C0F5D1F9A012150310937FD30C0D7FE76
:1034400003C0EA01D12CC12C281739071CF0EC016C
:10345000CC19DD09D501ED91FC910284F385E02DB5
:10346000C5010995780101E010E09E01A401B601B3
:10347000C5010E94CB18D501ED91FC910688F78912
:10348000E02DC501DF91CF911F910F91FF90EF903B
:10349000DF90CF90BF90AF909F908F900994DF9175
:1034A000CF911F910F91FF90EF90DF90CF90BF9041
:1034B000AF909F908F9008958F929F92AF92BF92FE
:1034C000CF92DF92EF92FF920F931F93CF93DF93F0
:1034D0004C016B015A01E901209709F46CC00115F8
:1034E000110509F468C037FF07C0C9010196C80E6D
:1034F000D91ED195C195D109F401A085B185CA160F
:10350000DB060CF058C017FF07C0C8010196A80ED3
:10351000B91E119501951109F40182859385A816AC
:10352000B9060CF048C0F601EC0FFD1FAF01415089
:10353000510957FD40C0B501600F711F9B0121501B
:10354000310937FD38C0D7FE03C0EF01D12CC12CA3
:10355000B7FE03C08B01B12CA12C4A175B071CF0EE
:10356000ED01CC19DD09281739071CF08C010A1967
:103570001B09D401ED91FC910284F385E02DC40177
:1035800009959E01A501B601C4010E94CB18D40182
:10359000ED91FC910688F789E02DC401DF91CF9170
:1035A0001F910F91FF90EF90DF90CF90BF90AF9061
:1035B0009F908F900994DF91CF911F910F91FF9071
:1035C000EF90DF90CF90BF90AF909F908F90089535
:1035D000EF92FF920F931F93CF93DF9377FD32C04B
:1035E000DC011896ED91FC916E177F075CF52115B3
:1035F000310541F137FF07C0F90131964E0F5F1FCA
:10360000319521953109DC011A96ED91FC914E1707
:103610005F07C4F4EA01C20FD31FDE011197B7FDA3
:1036200011C057FF03C09E0150E040E0AE17BF0736
:103630001CF09F01241B350B7801890121E030E04B
:103640000E94CB18DF91CF911F910F91FF90EF90C7
:103650000895EF92FF920F931F93CF93DF9357FD3F
:1036600031C0DC011A96ED91FC914E175F0754F5BD
:103670002115310539F137FF07C0F90131966E0F79
:103680007F1F319521953109DC011896ED91FC9150
:103690006E177F07BCF4EB01C20FD31FDE01119739
:1036A000B7FD10C077FF03C09E0170E060E0AE1769
:1036B000BF071CF09F01261B370B780101E010E0CB
:1036C0000E94CB18DF91CF911F910F91FF90EF9047
:1036D00008958F929F92AF92BF92CF92DF92EF9216
:1036E000FF920F931F93CF93DF934701211531056D
:1036F00009F44BC00115110509F447C037FF07C095
:10370000F90131966E0F7F1F319521953109DC014A
:103710001896AD90BC906A157B05BCF517FF07C0E5
:10372000F80131964E0F5F1F119501951109DC01CB
:103730001A96ED91FC914E175F073CF56B01C20E96
:10374000D31EE6012197D7FD20C07A01E00EF11EBD
:10375000D7011197B7FD19C077FF03C0960170E03C
:1037600060E057FF03C0870150E040E0CA15DB0569
:103770001CF09501261B370BAE17BF071CF08F01FD
:10378000041B150B74010E94CB18DF91CF911F9180
:103790000F91FF90EF90DF90CF90BF90AF909F90F0
:1037A0008F900895EF92FF920F931F93CF93DF9323
:1037B000EC0177FD22C08885998568177907ECF4BC
:1037C00057FD1BC08A859B8548175907B4F47901BA
:1037D000E881F98102A4F3A5E02D01E010E021E0E9
:1037E00030E0CE010995B701CE01DF91CF911F9155
:1037F0000F91FF90EF900C948E16DF91CF911F9157
:103800000F91FF90EF900895FC0187A987FD06C0F6
:10381000A38DB48D8C9191A9892B8C9385A981114D
:1038200004C0878D90A10C9446090895CF93DF932F
:10383000EC010E9474178FA987FD06C0EB8DFC8DEB
:1038400080819AA989238083DF91CF91089508957B
:10385000FC016370668B848195812681378161309C
:1038600039F0633029F08087918722873387089564
:10387000208731878287938708952F923F924F92B6
:103880005F926F927F928F929F92AF92BF92CF92F0
:10389000DF92EF92FF920F931F93CF93DF93CDB7F9
:1038A000DEB76A97CDBFDEBF898F9A8F69837A832F
:1038B0004A01D22E0F8318873701BC2CDC015996A0
:1038C0002D913C915A972115310509F012C1189696
:1038D0008D919C911997681779070CF0D4C11A96AD
:1038E0008D919C91481759070CF0CDC14C2C512C4F
:1038F000B6E0CB9E600D711D11246B877C87161678
:1039000017060CF0C0C1EA2DF0E0E987FA8793E0D2
:10391000EE0FFF1F9A95E1F7EF87F88BCF01840F29
:10392000951F181619060CF0AEC1A98DBA8D5896C0
:103930008C91811104C0BFEABD1508F4D394A98D00
:10394000BA8DED91FC9111970284F385E02DCD01A4
:103950000995B5E0DB9EC0011124E981FA81EB8372
:10396000FC83312C212C9C01265C3B4F2F8B388F04
:103970004A2D50E04D8B5E8BEF89F88DE20DF31DE3
:1039800044918D829E82D12CC12C69817A81620DF5
:10399000731D698B7A8B842F90E08B8B9C8BE98DC8
:1039A000FA8DA081B18140FF7FC0F1E0BF126CC0F1
:1039B000AF126AC01C96ED91FC912F813885A4014D
:1039C0004C0D5D1D69897A89898D9A8D0995EB89E0
:1039D000FC89F595E7954E2F5FEFC51AD50A6D81E5
:1039E0007E818D899E89680F791F6D837E8398E023
:1039F000C916D10481F6AFEF2A1A3A0AEB81FC818D
:103A0000E40DF51DEB83FC83F5E02F16310409F07E
:103A1000B3CF2F81388526153705B9F0A98DBA8D1A
:103A2000ED91FC91B1E0BB1254C0AB1252C0698160
:103A30007A816B5F7F4F0088F189E02D830128E058
:103A400030E0A401898D9A8D0995A98DBA8DED91EB
:103A5000FC9111970688F789E02DCD016A96CDBFBC
:103A6000DEBFDF91CF911F910F91FF90EF90DF901C
:103A7000CF90BF90AF909F908F907F906F905F900E
:103A80004F903F902F9009941E96ED91FC91EF80FE
:103A9000F88409851A8592014D815E816B817C8154
:103AA000898D9A8D099593CF2F81388526153705F5
:103AB00009F48DCF31E0B31207C0A31205C01C96E4
:103AC000ED91FC9193017BCF1E96ED91FC917301DA
:103AD000E0CF6B857C85641975090684F785E02D38
:103AE00073010F8518899201A401898D9A8D09951A
:103AF000ACCFF90134969491329745915491D91AEB
:103B0000B7E0DB9E400D511D1124F9012591349140
:103B10002B8B3C8BFA0125903490FA0132967490ED
:103B200031963491398B329664903196449041E0CD
:103B30004C1518F04A1508F07FC0662D062C000CB5
:103B4000770B6B837C83842D042C000C990B8D8365
:103B50009E83A98DBA8DED91FC9111970284F38516
:103B6000E02DCD010995512CD12CC12CEA2DF0E08E
:103B7000E987FA872B2D30E02B873C87A401440D81
:103B8000511D47FC5A954F8B588F69817A81660D7C
:103B9000711D67FC7A956D877E877989C71608F055
:103BA00054CF2C2D30E04D815E81420F531FA985EB
:103BB000BA854A9FC0014B9F900D5A9F900D1124CA
:103BC000FC01E80DF91DEF87F88B852D612C4F89DD
:103BD000588D420F531F4D8B5E8B671408F050C0F9
:103BE00044244394480E877041F4C1010196EB8947
:103BF000FC89E20DF31DD4901C01D7FE19C0A98DDC
:103C0000BA8DED91FC91662D70E0B1E0BB1219C048
:103C1000AB1217C02D853E85620F731F0484F58596
:103C2000E02D2F8138854D895E89898D9A8D099582
:103C3000DD0C6394842DD1CF1D821E821B821C82D9
:103C400088CF4B815C81640F751FAB85BC856A9FF3
:103C5000C0016B9F900D7A9F900D112469817A812C
:103C6000680F791F0684F785E02DEF80F8840985B9
:103C70001A859D014F855889898D9A8D0995D8CFD0
:103C8000570CC3948ACF6A96CDBFDEBFDF91CF9128
:103C90001F910F91FF90EF90DF90CF90BF90AF906A
:103CA0009F908F907F906F905F904F903F902F905C
:103CB00008958F929F92AF92CF92EF92FF920F93BF
:103CC0001F93CF93DF93EC01262F898D9A8D009758
:103CD00009F051C06A30D1F41C861D868D8948E0F8
:103CE000849F900111248E859F85820F931F8E875C
:103CF0009F8781E090E0DF91CF911F910F91FF901E
:103D0000EF90CF90AF909F908F9008956D3089F392
:103D1000CC88AD888F898823C1F08C859D8536E05D
:103D2000C39E800D911D1124488559854817590758
:103D300064F44E855F851C861D8638E0A39EC00115
:103D40001124840F951F8E879F87EA88FB88088936
:103D500019894E855F856C857D85CE010E943D1C4D
:103D60002C898C859D8546E0249F800D911D112412
:103D70008C879D87BECF6A3069F41C861D86FC0146
:103D80003896E4912D898E859F85E29F800D911D47
:103D90001124ADCF6D3009F4ACCFFC0134963491D1
:103DA000631708F4A6CF3296E491E61708F4A1CF82
:103DB000FC01329685909490462F431B342F47E0A8
:103DC000349F800C911C1124F40132963491319669
:103DD000E4913323A9F1EE2399F1CC88F4013596CF
:103DE000E491AD884F89442301F10E2E000CFF0BA6
:103DF000E30FF11DCE9EA001CF9E500D11246C85C6
:103E00007D85460F571F68857985641775076CF4A3
:103E10004E855F851C861D86FC013896E491AE9E1A
:103E2000400D511D11244E875F87EA88FB88088961
:103E300019894E855F856C857D85CE010E943D1C6C
:103E4000F4013496E4912C898C859D85E29F800D48
:103E5000911D11248DCF6F927F928F929F92AF927E
:103E6000BF92CF92DF92EF92FF920F931F93CF9367
:103E7000DF93EC016B015A0139014801E881F981B6
:103E80000284F385E02D0995E881F9810288F389A0
:103E9000E02D87019301A501B601CE010995A50189
:103EA000480D591D41505109E881F9810288F38973
:103EB000E02D9301B601CE010995E881F9810088D2
:103EC000F189E02D9401A501B601CE010995C60C3A
:103ED000D71CB60161507109E881F9810088F18928
:103EE000E02D9401A501CE010995E881F9810688AC
:103EF000F789E02DCE01DF91CF911F910F91FF90B7
:103F0000EF90DF90CF90BF90AF909F908F907F9079
:103F10006F9009946F927F928F929F92AF92BF920F
:103F2000CF92DF92EF92FF920F931F93CF93DF9385
:103F30005C01EB016A01490138018701DC01ED9167
:103F4000FC916217730719F5641675062CF0962D0F
:103F5000872D3A01C92ED82E9601261937092F5FD1
:103F60003F4F048CF58DE02DA301BE01C5010995DD
:103F7000DF91CF911F910F91FF90EF90DF90CF9045
:103F8000BF90AF909F908F907F906F90089546154F
:103F9000570591F42617370724F0892D4B01C22FBE
:103FA000D82F9E01281939092F5F3F4F068CF78DB6
:103FB000E02DA601B401DACF0284F385E02D099546
:103FC000D501ED91FC910488F589E02D83019401E0
:103FD000A601BE01C5010995D501ED91FC910688A8
:103FE000F789E02DC501DF91CF911F910F91FF90CF
:103FF000EF90DF90CF90BF90AF909F908F907F9089
:104000006F900994EF92FF920F931F93DC011A9621
:104010000D911C911B9718962D913C911997ED913C
:10402000FC9100A0F1A1E02D7B0150E040E070E0A8
:1040300060E009951F910F91FF90EF9008954F92C6
:104040005F926F927F928F929F92AF92BF92CF9228
:10405000DF92EF92FF920F931F93CF93DF936C0148
:104060002B015A0139014801DC01ED91FC910284D8
:10407000F385E02D0995E201640C751CD601ED91E4
:10408000FC91C615D7055CF40088F189E02D870105
:104090009401A501BE01C60109952196EFCF0688BE
:1040A000F789E02DC601DF91CF911F910F91FF900D
:1040B000EF90DF90CF90BF90AF909F908F907F90C8
:1040C0006F905F904F9009948F929F92AF92BF92A2
:1040D000CF92DF92EF92FF920F931F93CF93DF93D4
:1040E000EC015B014A016901E881F9810284F385F1
:1040F000E02D099595012C0D3D1D21503109E881D8
:10410000F9810488F589E02D78018401A401B501C5
:10411000CE010995E881F9810688F789E02DCE0165
:10412000DF91CF911F910F91FF90EF90DF90CF9093
:10413000BF90AF909F908F9009948F929F92AF9273
:10414000BF92CF92DF92EF92FF920F931F93CF9384
:10415000DF93EC015B014A0169017801E881F98193
:104160000284F385E02D0995C80CD91C8601015005
:104170001109E881F9810488F589E02D9501A401F0
:10418000B501CE010995E881F9810688F789E02D0E
:10419000CE01DF91CF911F910F91FF90EF90DF90B3
:1041A000CF90BF90AF909F908F900994EF92FF9225
:1041B0000F931F93DC01ED91FC9100A0F1A1E02D84
:1041C00009951F910F91FF90EF9008950F931F9302
:1041D000DC01ED91FC91068CF78DE02D09951F9186
:1041E0000F9108950F931F93DC01ED91FC91048CC6
:1041F000F58DE02D09951F910F910895DC01ED914A
:10420000FC910084F185E02D09943F924F925F92DA
:104210006F927F928F929F92AF92BF92CF92DF92D6
:10422000EF92FF920F931F93CF93DF935C017B017B
:104230004A016901390187E0680E711C93E07594A9
:1042400067949A95E1F72B01400E511E10E000E0B3
:10425000312CD0E0C0E0CE0187709927330C892B38
:1042600059F4FE0183E0F595E7958A95E1F7E00FB3
:10427000F11FE80DF91D349037FE0AC021E030E04F
:10428000A701B5016C0F7D1F87E190E30E94FE201E
:104290002196CC16DD06F9F68FEFE81AF80A060D1E
:1042A000171DE414F504A9F6DF91CF911F910F912A
:1042B000FF90EF90DF90CF90BF90AF909F908F9046
:1042C0007F906F905F904F903F9008952F923F9214
:1042D0004F925F926F927F928F929F92AF92BF9216
:1042E000CF92DF92EF92FF920F931F93CF93DF93C2
:1042F000CDB7DEB72697CDBFDEBF3C016A012D8367
:104300003E83EB82FC825801A41AB50AB7FE03C0B3
:10431000B194A194B1088D809E80861A970A97FE69
:1043200003C09194819491088A149B045CF0902FAF
:10433000812F0D811E819D838E839C2D8D2D6B0180
:10434000692F782F0C151D055CF09D818E816D8382
:104350007E83692F782F902F812F8601C92ED82E2A
:104360001601201A310A2B012D813E81421A530A6F
:1043700057FE03C0519441945108710137FE03C0A8
:104380003FEFE31AF30AF594E7948D819E81861737
:1043900097075CF5A1E0B0E0A983BA83C016D10607
:1043A0004CF1D301ED91FC910484F585E02D2B8136
:1043B0003C81A8016D817E818A149B041CF04D8193
:1043C0005E81B801C3010995E418F508F7FE0AC03B
:1043D0002D813E8189819A81280F391F2D833E834B
:1043E000E20CF31C0F5F1F4FD9CF2FEF3FEF298354
:1043F0003A83D4CF2696CDBFDEBFDF91CF911F91F8
:104400000F91FF90EF90DF90CF90BF90AF909F9073
:104410008F907F906F905F904F903F902F90089576
:104420000895E0EAF8E091859066918792E0909394
:1044300064288093542810925328089581E0809333
:1044400053281092542893E09093AA089091AB08B7
:1044500091FF0BC010925E28F0E0E0E00995809398
:104460005D2885E080936428089510925F288093EA
:104470005C2886E0F7CFCF92DF92EF92FF92CF9346
:10448000DF9328EE33E040E050E00E941652283CD3
:10449000310578F0C0E9D1E06CE271E0203283E0D0
:1044A000380758F0C8EED3E068E770E0203B3440AE
:1044B00020F0C4E6D0E068EE73E090E080E024E015
:1044C000660F771F881F991F2A95D1F728E13CEFC7
:1044D0004FEF5FEF0E94385269017A019E0150E070
:1044E00040E060E87EE380E090E00E943852C7013F
:1044F000B601620F731F841F951F6A5071098109ED
:10450000910922E030E040E050E00E9438522093D0
:10451000A608DF91CF91FF90EF90DF90CF900895A4
:1045200081E090E03091662820916528321710F4E0
:1045300090E080E091958195910908958091662899
:1045400090916528891730F48F5F8093662890E0FA
:1045500080E008958FEF9FEF0895809165289091F6
:104560006628891B990B0895CF92DF92EF92FF92F4
:104570000F931F93CF93DF937C018A01EB016B01B3
:10458000C40ED51ECC15DD0551F06991D701ED9112
:10459000FC910190F081E02DC7010995F3CFC8018E
:1045A000DF91CF911F910F91FF90EF90DF90CF900F
:1045B000089520917528203440F021E030E0FC017E
:1045C0002283338390E080E0089580917628E82F5D
:1045D000F0E0ED5EF74D60838F5F809376288093E7
:1045E000752881E090E0089590916428913009F059
:1045F00057C080916128811155C020917528809104
:104600007728909361281092602843E158E2409304
:104610005628509357282093582810925A281092C1
:1046200062281092632890935928880F8093552808
:1046300093E024E080915828882331F090936428F7
:10464000809155288E7F09C080915A28882341F097
:10465000209364288091552881608093A70808C022
:1046600080915828811104C080915A28882331F301
:10467000809160288823E1F3809160288330D1F213
:1046800080915A28882339F08091632810927628E7
:104690001092752808959091602881E09130B1F7CB
:1046A00080E0F4CF81E0F2CFEF92FF920F931F935F
:1046B000CF937C01C62F8091343090913530009794
:1046C00009F452C020913830209377281092762830
:1046D00010927528DC01ED91FC910190F081E02DA4
:1046E00060E009958701EE24E394F12CC15080919C
:1046F000343090913530CF3F81F1B0E2EB16F104C8
:10470000C8F00E94F422809134309091353020918D
:104710003830209377281092762810927528DC0183
:10472000ED91FC910190F081E02D60E00995EE247F
:10473000E394F12C8091343090913530F8016491FC
:10474000DC01ED91FC910190F081E02D0995BFEF26
:10475000EB1AFB0A0F5F1F4FC9CFCF911F910F912B
:10476000FF90EF900C94F422E0914430F0914530AA
:10477000908180914A30809589238083F701C150D0
:1047800008F43DC044918091323090913330892BB0
:1047900059F000004093C4088091C30887FFFCCF04
:1047A0008091C4083196EBCF28E030E090E8A091EA
:1047B0004030B091413080914830542F5923D9F086
:1047C0005C91852B8C93A0914230B09143308C91B9
:1047D00050914930852B8C93A0914230B091433059
:1047E0005C9180914930809585238C9396952150DA
:1047F0003109E9F6D7CF5C9180958523E3CFCF913E
:104800001F910F91FF90EF9008951F93CF93DF9327
:10481000EC018D8D9E8D009709F1162F29A1209313
:1048200077281092762810927528DC01ED91FC9182
:104830000190F081E02D60E009958D8D9E8DDC0169
:10484000ED91FC910190F081E02D612F09958D8D06
:104850009E8DDF91CF911F910C94F422ADA5BEA542
:104860009C918BA9809589238C938B8D9C8D892B12
:1048700069F000006093C4088091C30887FFFCCFF3
:104880008091C408DF91CF911F91089528E030E016
:1048900090E8A9A5BAA589A9462F4923A9F04C916A
:1048A000842B8C93ABA5BCA58C914AA9842B8C93AB
:1048B000ABA5BCA54C918AA9809584238C93969531
:1048C0002150310931F7DECF4C9180958423E9CF17
:1048D000EF92FF920F931F93CF93DF938091343029
:1048E00090913530892B09F483C060914C307091E0
:1048F0004D3080914E3090914F300E943B2265E0C8
:104900008FE19EE00E94542360911B30615087E14B
:1049100090E30E94052420911D3030911E30C90182
:10492000079697FD079623E0959587952A95E1F7D9
:1049300020911B3030911C30829F8001839F100D8D
:10494000929F100D1124C0913630D0913730809154
:104950003430909135300C0F1D1F009709F478C04A
:10496000209138302093772810927628109275285D
:10497000DC01ED91FC910190F081E02D60E409955E
:10498000EE24E394F12C80913430909135300C1763
:104990001D0709F444C0B0E2EB16F104C8F00E9410
:1049A000F42280913430909135302091383020932A
:1049B00077281092762810927528DC01ED91FC91F1
:1049C0000190F081E02D60E40995EE24E394F12C50
:1049D00080913430909135306991DC01ED91FC91FA
:1049E0000190F081E02D0995BFEFEB1AFB0ACBCFC8
:1049F0008091323090913330009731F06091553092
:104A0000709156300E94EF09E0914630F0914730A6
:104A1000908180914B3080958923808370CF0E9454
:104A2000F4228091343090913530892B09F458C0AC
:104A3000609150307091513080915230909153304C
:104A4000DF91CF911F910F91FF90EF900C943B223B
:104A5000E0914430F0914530808190914A30892B2B
:104A600080830C171D07E9F25991809132309091A3
:104A70003330892B51F000005093C4088091C30853
:104A800087FFFCCF8091C408ECCF28E030E090E8AD
:104A9000E0914030F091413080914830452F4923DA
:104AA000D9F04081842B8083E0914230F0914330F3
:104AB000808140914930842B8083E0914230F09195
:104AC000433040818091493080958423808396953E
:104AD00021503109E9F6C5CF408180958423E3CF89
:104AE000E0914630F0914730808190914B30892B96
:104AF00080838091323090913330009741F0DF9184
:104B0000CF911F910F91FF90EF900C944609DF9188
:104B1000CF911F910F91FF90EF9008951F93CF9326
:104B2000DF93EC01162F8D8D9E8D892BC9F06DA919
:104B30007EA98FA998AD0E943B2266EA111167EA0F
:104B4000CE010E9405248D8D9E8D892BC9F069AD03
:104B50007AAD8BAD9CADDF91CF911F910C943B2230
:104B60008B8D9C8D009721F06EAD7FAD0E94EF097B
:104B7000EFA5F8A990818CA9809589238083DDCF4A
:104B8000EFA5F8A980819CA9892B80838B8D9C8DB2
:104B9000009729F0DF91CF911F910C944609DF9186
:104BA000CF911F91089590E080E00895CF92DF9219
:104BB000EF92FF92FC01808191818230910581F01A
:104BC0008330910509F4A2C0019709F09AC06DECF9
:104BD0007CEC8CE49DE3FF90EF90DF90CF90089504
:104BE000C084D184E284F38420E030E040EA51E4E0
:104BF000C701B6010E940A5418161CF520E030E0E7
:104C00004CEC52E4C701B6010E94935087FF19C0D3
:104C100020E030E040EA51E4C701B6010E94B15201
:104C200020E030E040E05FE30E94F95020E030E017
:104C300044EA52E40E94235320E030E040E85FE37E
:104C40002CC020E030E04CEC52E4C701B6010E94D9
:104C50000A5418162CF520E030E040EF52E4C7016A
:104C6000B6010E94935087FF1BC020E030E04CEC5F
:104C700052E4C701B6010E94B15220E030E040E0AA
:104C80005FEB0E94F95020E030E040E951E40E94DF
:104C9000235320E030E040EC5FE30E94B2529BCF10
:104CA00020E030E040EF52E4C701B6010E940A5410
:104CB0001816ECF420E030E046E153E4C701B601F9
:104CC0000E94935087FF13C020E030E040EF52E491
:104CD000C701B6010E94B15226E636E646E65FEB12
:104CE0000E94F95020E030E040EF51E4A3CF20E0F3
:104CF00030E040EA51E4C701B6010E94935087FFBB
:104D00005CC060E070E080E89FE365CFC084D18440
:104D1000E284F38420E030E040EF52E4C701B601C2
:104D20000E940A541816BCF420E030E046E153E437
:104D3000C701B6010E94935087FF0DC020E030E00C
:104D400040EF52E4C701B6010E94B15220E030E0CA
:104D500040E05FE3C5CF20E030E046E153E4C70127
:104D6000B6010E940A5418161CF120E030E040EF12
:104D700052E4C701B6010E94935087FF1EC020E095
:104D800030E040EA51E4C701B6010E94B15226E684
:104D900036E646E65FE30E94F95020E030E048EC5A
:104DA00052E40E9423532DEC3CEC4CEC5DE375CFB8
:104DB00060E070E080EC9FE30ECF6DEC7CEC8CEC5F
:104DC0009DE309CF8F929F92AF92BF92CF92DF92D5
:104DD000EF92FF92CF93DF93EC010E94120E6B01D2
:104DE0007C01888D0E94F30DBC01990F880B990BF3
:104DF0000E949A504B015C0120E030EC4FE754E4F4
:104E0000C701B6010E9423539B01AC01C501B40147
:104E10000E94F9504B015C01AC019B01C701B60136
:104E20000E94B152298D3A8D4B8D5C8D0E94F950B4
:104E3000A50194010E9423536C8B7D8B8E8B9F8BDD
:104E4000DF91CF91FF90EF90DF90CF90BF90AF9028
:104E50009F908F9008950F931F93CF9310921030CF
:104E600007E61CE2C0E0C8010E94E2262FEF3FEFF8
:104E70004FE75FE70E940A54181654F080911030F3
:104E8000E82FF0E0E65FFF4CC0838F5F8093103027
:104E90000B5B1F4FCF5FC63031F7CF911F910F9142
:104EA0000895CF93DF93EC016115710559F461E02A
:104EB000C331D105C1F46EE170E083E1DF91CF91A0
:104EC0000C948F0D6230710569F40E94E20E28EE99
:104ED00033E040E050E00E941652643F714081058B
:104EE000910528F360E08C2FDF91CF910C94C60CD4
:104EF000DC01ED91FC910488F589E02D23E030E0A0
:104F000009948F929F92AF92BF92EF92FF920F936C
:104F10001F93CF93DF93CDB7DEB72697CDBFDEBF0C
:104F2000FC014A015B017C018CE3E80EF11C10E0FE
:104F300000E0D7012D913D917D01A8EEB3E00E94E4
:104F4000F35186169706A806B90688F1D7011C9773
:104F50002D913C91A8EEB3E00E94F351861697067E
:104F6000A806B90620F586E0809F9001819F300D4C
:104F70001124E20FF31FDE01119601900D928A9524
:104F8000E1F729813A814B815C816D817E8180E0EE
:104F900090E02696CDBFDEBFDF91CF911F910F919C
:104FA000FF90EF90BF90AF909F908F9008950F5F0C
:104FB0001F4F0530110509F0BCCF86E07896DBCF96
:104FC000CF93DF93CDB7DEB72C97CDBFDEBF8091F7
:104FD000D42A9091D52A019779F482ED9AE20E9421
:104FE000470FAB01BC0182E89AE22C96CDBFDEBF31
:104FF000DF91CF910C94812786E0E2E8FAE2DE01AE
:10500000119601900D928A95E1F786E0FE013196A6
:10501000DE01179601900D928A95E1F72F81388570
:1050200049855A856B857C8580E090E02C96CDBFC4
:10503000DEBFDF91CF910895CF93DF93EC01972FDF
:10504000E62FF72F30E020E08DE953E04191DE01BB
:10505000A20FB31FB4617C91471759F04C934FB71F
:10506000F89484BF509300104FBF4091021041FD4F
:10507000FCCF2130310521F4862FDF91CF910895A7
:1050800021E030E0E3CFFC01F4612081FB012083CB
:10509000FC013196F4618081FB018183CB0108958D
:1050A000CF93DF93EC0188819981009711F00E94E2
:1050B0005156188219821C821D821A821B82DF912E
:1050C000CF910895FC01808191810C9451560F93EA
:1050D0001F93CF93DF93FC0120813181261737077F
:1050E00011F18B01EC01868197810E94515684E079
:1050F00090E00E94B55528813981FC0120833183DD
:10510000028313838E839F83088319830E94E20E98
:105110006A837B838C839D838E819F81DF91CF9176
:105120001F910F91089590E080E0F8CF0F931F93A7
:10513000CF93DF93CDB7DEB72697CDBFDEBF4983D0
:105140005A836B837C838D839E838D819E81209186
:10515000B52F3091B62F2130310509F02BC10197C1
:1051600091F589819A818330910509F0F0C0E09131
:105170001530F09116308081843669F14785508969
:1051800090E080E084179507F4F4A585B6859C012E
:10519000220F331FA20FB31F6C912381348162173A
:1051A000130609F0CBC011968C9190E0880F991FDF
:1051B00021853285820F931FFC0100811181011529
:1051C000110509F0BDC02696CDBFDEBFDF91CF919E
:1051D0001F910F91089523813481C901880F991F70
:1051E000820F931F0580F681E02DE80FF91F2281C1
:1051F0008CE9820F843038F72456330B41E6429F06
:10520000C001439F900D1124FC01ED51F54D4EE17D
:10521000A2E8BAE201900D924A95E1F7FC01EF5F36
:10522000F44DAF014C5E5F4FA0EABAE261916D931D
:10523000E417F507D9F7FC01EB5EF44DAF01465FCB
:105240005F4FA4EBBAE2619171916D937D93E41786
:10525000F507C9F7FC01E15EF44DAF01465F5F4F12
:10526000AEEBBAE2619171916D937D934E175F073A
:10527000C9F7FC01E75DF44DAF014B5F5F4FA8EC50
:10528000BAE261916D93E417F507D9F7FC01E25D8D
:10529000F44DCF010596ADECBAE241914D93E8177C
:1052A000F907D9F741E6429FC001439F900D1124B1
:1052B0008D51954DFC01EE5AFF4F20813181209395
:1052C000D42A3093D52A3296208131812093D62A50
:1052D0003093D72A32964081518162817381409305
:1052E000D82A5093D92A6093DA2A7093DB2A34960D
:1052F00040815181628173814093DC2A5093DD2A81
:105300006093DE2A7093DF2A3496208131812093C6
:10531000E02A3093E12A805A9F4FFC0180818093DC
:10532000E22A62E070E085EB9FE22696CDBFDEBF09
:10533000DF91CF911F910F910C946728019622CF96
:105340000E942B2700931530109316303CCF8230EB
:10535000910571F4E0911530F091163081819281C0
:10536000009709F430CF80931530909316302BCFEF
:10537000009789F4E0911530F09116308381948183
:1053800001978383948397FF1ECF87819085019730
:105390008383948318CF019709F015CFE0911530DE
:1053A000F0911630838194810196678170850E9407
:1053B0000252EECF2630310509F005CF019709F0F2
:1053C00002CF61E070E0AFCF1F93CF93DF93EC018A
:1053D000142F688379834A831B821C821D821E825C
:1053E0001F82188684E090E00E94B555FC0110826F
:1053F00011821282138289879A8762E0812FDF915E
:10540000CF911F910C944F0C8F929F92AF92BF92AD
:10541000EF92FF920F931F93CF93DF93EC014A011A
:105420005B0181149104A104B10439F4812C38E4A6
:10543000932E38EEA32EBB24B394FE01FF968082F8
:105440009182A282B38281E28DAF80E28EAF3696E6
:1054500010818FA987FD07C061E00E944F0C61E0B9
:105460008FA90E94C60C61E088AD0E944F0C61E0DC
:1054700088AD0E94C60C8DA9811161C040E052E147
:105480006AE770E084169506A606B70640F476959E
:105490006795579547958F5F8630A1F787E0982FDE
:1054A000909590FBEE24E0F8F12C94E0EE0CFF1CBC
:1054B0009A95E1F781628E2989A3812F84608AA35E
:1054C000812F90E0B0E0A0E08BA39CA3ADA3BEA38E
:1054D0008F8D98A18857984221F488E798E20E941E
:1054E000540C8EA987FD79C061E00E944F0C61E0E9
:1054F0008EA90E94C60C64E670E080E090E00E94F5
:10550000B20E60E08EA90E94C60C64E670E080E0F6
:1055100090E00E94B20E61E08EA90E94C60C68EC79
:1055200070E080E090E0DF91CF911F910F91FF90AC
:10553000EF90BF90AF909F908F900C94B20E06E9C1
:1055400011EFF12C8130B9F461E08AA50E944F0C73
:1055500060E08AA50E94C60C61E08CA50E944F0CF9
:1055600060E08CA50E94C60C8BA587FDBACF60E0D9
:105570000E944F0CB6CFF80181918F01863050F513
:10558000F0E28F9FC00111249C5F04962F8D38A1FB
:105590002817390741F461E08F2D0E944F0C60E01D
:1055A0008F2D0E94C60CF39429E2F212E4CF61E041
:1055B0008EA50E944F0C61E08EA50E94C60C8FA59F
:1055C00087FD8FCF61E00E944F0C61E08FA50E94A4
:1055D000C60C87CF90E080E0D8CFDF91CF911F91AC
:1055E0000F91FF90EF90BF90AF909F908F90089594
:1055F00020911D3030911E30C901079697FD079606
:1056000023E0959587952A95E1F720911B303091FD
:105610001C30829FA001839F500D929F500D11243A
:1056200070E060E080913630909137300C94A5574F
:105630008F929F92AF92BF92CF92DF92EF92FF92A2
:105640000F931F93CF93DF93CDB7DEB72897CDBFCE
:10565000DEBF4B015A01FC0101900020E9F73197B0
:105660006F01C81AD90AEDEBFFE2208531852B8343
:105670003C832285338529833A839E012F5F3F4FE8
:1056800079018E010D5F1F4F2C5F3F4FAE01495FC7
:105690005F4FBC01CF010E943E0731E0831A9108A1
:1056A0008C2D880FC80ECC0CB4016C197109C50182
:1056B00004972896CDBFDEBFDF91CF911F910F9148
:1056C000FF90EF90DF90CF90BF90AF909F908F9022
:1056D0000895FB0101900020E9F73197AF01461BC7
:1056E000570BDC01ED91FC910280F381E02D0994D0
:1056F000CF93DF93FC01448155816081718187E103
:1057000090E30E94180FEC016BE172EF87E190E3E8
:105710000E94692B8C0F9D1FDF91CF9108958F926E
:105720009F92AF92BF92EF92FF920F931F93CF93EE
:10573000DF93CDB7DEB7A197CDBFDEBF7C01FA0105
:10574000CB0119A2223008F42AE08E010F5D1F4F11
:10575000822E912CB12CA12CBF01A50194010E9495
:105760001652F901CA016A30F4F4605DD8016E93F3
:105770008D01232B242B252B79F790E080E01097C7
:1057800021F0BD01C7010E94692BA196CDBFDEBFEC
:10579000DF91CF911F910F91FF90EF90BF90AF904D
:1057A0009F908F900895695CE1CFCF93DF93AC0118
:1057B00070E060E02AE08DEB9FE20E948F2BEC010D
:1057C0006BE172EF8DEB9FE20E94692B8C0F9D1FA6
:1057D000DF91CF9108952F923F924F925F926F92F7
:1057E0007F928F929F92AF92BF92CF92DF92EF9271
:1057F000FF921F93CF93DF93EC016A017B01722E1E
:10580000AB019601CB01B6010E94B7546EE172EF75
:10581000811126C046015701E894B7F82FEF3FEFFA
:105820004FE75FE7C501B4010E94B75481110CC076
:105830002FEF3FEF4FE75FE7C501B4010E949350A0
:1058400062E272EF181664F02FEF3FEF4FE75FE46C
:10585000C701B6010E940A541816B4F466E272EF4A
:10586000CE01DF91CF911F91FF90EF90DF90CF900D
:10587000BF90AF909F908F907F906F905F904F9070
:105880003F902F900C94692B2FEF3FEF4FE75FEC89
:10589000C701B6010E94935087FDE0CF20E030E0C1
:1058A000A901C701B6010E949350312C212C87FF1A
:1058B0000DC0E881F9810190F081E02D6DE2CE010B
:1058C00009951C01F7FAF094F7F8F09410E060E005
:1058D00070E080E09FE3711641F020E030E040E2AC
:1058E00051E40E9423531F5FF6CFA70196010E9447
:1058F000B2522B013C010E949C534B015C012AE0F7
:10590000BC01A401CE010E948F2B7C01E20CF31C90
:105910001123C9F1C501B4010E9498509B01AC014B
:10592000C301B2010E94B1524B015C016BE372EF03
:10593000CE010E94692BE80EF91E115020F120E0E3
:1059400030E040E251E4C501B4010E94F9502B015E
:105950003C010E949C534B01B12CA12C2AE0B501C3
:10596000A401CE010E948F2BE80EF91EC501B401DF
:105970000E9498509B01AC01C301B2010E94B15238
:105980004B015C01DACFC701DF91CF911F91FF90EE
:10599000EF90DF90CF90BF90AF909F908F907F90CF
:1059A0006F905F904F903F902F9008950F931F93AB
:1059B000CF93DF938C01D0E0C0E06115710519F041
:1059C0000E94692BEC016BE172EFC8010E94692B08
:1059D0008C0F9D1FDF91CF911F910F9108958F9292
:1059E0009F92AF92BF92CF92DF92EF92FF920F936E
:1059F0001F93CF93DF93CDB7DEB72897CDBFDEBF20
:105A00006C014B015A01AE014F5F5F4F7A018E016D
:105A10000D5F1F4F9E012B5F3F4F4A5F5F4FBC01E1
:105A200087E190E30E943E0751E08516910409F05A
:105A30003FC080911F309091203097FD0196959541
:105A400087952B813C8136952795AC01421B530BE2
:105A50009A0181E0A816B104D1F58091213090918E
:105A6000223097FD01969595879549815A815695E3
:105A70004795841B950B20932330309324308093DB
:105A8000253090932630B60187E190E30E94D62C12
:105A90002896CDBFDEBFDF91CF911F910F91FF9070
:105AA000EF90DF90CF90BF90AF909F908F90089530
:105AB00030E020E052E08516910459F620911F3025
:105AC000309120304B815C81241B350BC2CF92E09A
:105AD000A916B10439F48091213090912230498186
:105AE0005A81C7CF90E080E0C6CF0C94692B0F930A
:105AF0001F93CF93DF93C5E1D0E382E08E8B8F8B32
:105B000061E087E190E30E94281C1E861F860BE35C
:105B100010E0088B198B6AE272EF87E190E30E9434
:105B2000752D82E390E08E879F87088B198B6CE23E
:105B300072EF87E190E3DF91CF911F910F910C9469
:105B4000752DEF92FF920F931F93CF93DF937C01FC
:105B50008B010E94470FAB01BC012AE0C8010E94E3
:105B60008F2BEC01F701848195818D369105E1F051
:105B700068F469E372EF8D34910581F0CE01DF9115
:105B8000CF911F910F91FF90EF900895833791056A
:105B900071F06EE272EF8537910581F7C8010E94BE
:105BA000692BC80FD91FEACF62E372EFF7CF66E324
:105BB00072EFF4CF0F931F93CF93DF93EC018881A3
:105BC0009981009759F02A813B812617370730F0D9
:105BD00081E0DF91CF911F910F9108958B016F5F4D
:105BE0007F4F0E94DA56009759F0888399830A8381
:105BF0001B832C813D81232B59F7FC011082E8CFB8
:105C000080E0E7CFEF92FF920F931F93CF93DF9344
:105C10006115710541F480E0DF91CF911F910F91E3
:105C2000FF90EF90089541155105B1F07B01EC0113
:105C30000C811D81040F151FB8010E94DA2D8823E5
:105C400051F3288139818C819D81B701820F931F87
:105C50000E94AC570C831D8381E0DECFCF93DF938E
:105C6000EC01FB0101900020E9F73197AF01461BE1
:105C7000570B0E94022E811103C0CE010E945028B2
:105C8000CE01DF91CF910895CF93DF93EC01FB011B
:105C900044815581608171810E94022E811103C06F
:105CA000CE010E945028CE01DF91CF910895EF924E
:105CB000FF920F931F93CF93DF93EC017B018A0137
:105CC000BA010E94DA2D81110BC0CE010E9450282A
:105CD000CE01DF91CF911F910F91FF90EF9008952A
